:0200000407FCF7
:10000000C0DFFC072505FC072D05FC074505FC079F
:1000100000000000000000000000000000000000E0
:100020000000000000000000000000005D05FC076B
:1000300000000000000000005F05FC07372CFC07F3
:100040002922FC07597DFC071D27F007392CFC07E6
:100050008527FC076305FC071D22FC076305FC07D9
:100060006305FC076305FC07AD26FC07B726FC0704
:10007000C126FC07CB26FC07D526FC076305FC0739
:10008000CD2CFC076305FC076305FC076305FC0733
:100090006305FC076305FC076305FC076305FC07B4
:0200000407FCF7
:100510000348854601F090FD00480047F96CFC0750
:10052000C0DFFC070F4880470F4800470420714692
:10053000084203D0EFF309800C490847EFF3088025
:100540000A49084704207146084203D0EFF30980A6
:1005500007490847EFF3088005490847FEE7FEE72B
:10056000FEE7FEE7C59FFC071105FC079527FC0782
:100570006D27FC0770B50E4604460022032151F793
:10058000EAF9054652F7B6FB6880284651F7F4F9B8
:1005900052F7B0FB7188884200D3084601462046D6
:1005A00051F7D1FA002070BD0246FF4B92009A58D5
:1005B0000120126900290ED0517F5E239B5C002B25
:1005C0000BD0052906D1517E090702D5917C090778
:1005D00000D400207047917DEFE70229F9D004296B
:1005E000F7D00529F6D10020EDE7024630B593009B
:1005F000ED4A0120D2581269137DD47E157F234025
:10060000547D2C40012901D0022909D1957C527ECC
:1006100015402A0704D41A462243D20700D10020ED
:10062000032901D0042904D1590702D4610700D459
:10063000002030BDF8B514460D4610465BF76DFC42
:10064000240A002830D0D949A2008B5801271E8BDC
:10065000BF023E431E83132826D0142824D0152819
:1006600011D088582D210A5C0123D10600290CDA0B
:100670000146A0318E7D002E07D08B753D2120468E
:1006800045F7B8FE10E00220F8BD110703D50021A0
:10069000A0308175F7E7A0308375204643F7A4FBAF
:1006A0002946204643F7E3FB0020F8BDFFB581B0A3
:1006B0001546170A10465BF730FC002838D013287F
:1006C00036D0142834D0290A8C00B84E152815D0FD
:1006D000FF20294603305BF707FD30592D21095CC7
:1006E000C90603D5A030C07D00280ED03D026D1C88
:1006F000A8B25BF712FC19280CD00FE03059012189
:10070000A030C175022005B0F0BD3D21384645F747
:1007100071FE0DE0A8B201215BF7CDFB305901223B
:10072000018B5202914301833846029943F79FFBA4
:100730000020E8E7F0B59D498700C95900268031BF
:100740004A8C8B8C1B2A00D21B228C8B944200D2A9
:1007500022468A849A4200D001260B8CCD8C1B2B1A
:1007600000D21B23CC8B9C4200D22346CB84AB42CD
:1007700000D001260B8ECD8D9C46FF2349339D4230
:1007800001D21C4600E02C460D8DA54200D3254623
:100790000D86654500D001264C8EA4468C8D9C426A
:1007A00000D21C464B8DA34200D21C464C866445A9
:1007B00000D00126EB080B3B9BB29A4200D21346B5
:1007C0008B86522379495843794BCA591C68803229
:1007D0000419D28C8034E285C9591A688031801896
:1007E000498E803001863046F0BD10B50446714810
:1007F000008D8007800F012800D000206071002844
:1008000007D057F7F3FE01460622A01D5DF74EFC08
:1008100010BD06226849A01DF8E770B50546002402
:1008200042F7A9F82855641C082CF9DB70BDF8B50F
:10083000022707700126044646700D4688795F49F5
:10084000C96988472A210855287900210007000F27
:10085000A07003005DF77EFC07050709100D100B63
:100860001000A1700AE0A67026E0032002E0A77045
:1008700004E00420A07001E001281DD0A888000A2F
:10088000801FC0B2A0721F2800D9A172284642F76B
:1008900027F9811D2046A27A0B305DF707FC284618
:1008A00042F71EF901460622201D5DF7FFFB28795D
:1008B0004006C00FE070F8BDA172F0E7F7B54468DC
:1008C0008CB02546243503950546074624354CF75C
:1008D0001BFA06464420405B5221484334490968CC
:1008E0004018C0304089694608840121384647F7DE
:1008F0004AF94CF77EF809900E9800698088000A42
:10090000C1002F480818298940182D495B315DF72F
:1009100053FB01466868039D4718403528890690B7
:100920000090A0680099381A400140095DF744FB27
:100930000A910098C019401A400140096946A06018
:10094000098C4900C919891C49014909884204D206
:100950000699401840014009A06001460998081A0C
:10096000400118494009884215D900202B89A26806
:10097000401CD21852015209A260EA89521CEA8135
:10098000A368099A9A1A520152098A42EED801B212
:100990000D9847F799F9A1680998081A4201607DF6
:1009A0005209824221D80FE02C7EFD071879FD07FD
:1009B0004C76FD074C7EFD07CF79FD07B47FFD0720
:1009C00016020000FFFFFF032A898918490149091F
:1009D000A1602A890A99511A814206D901210D98EC
:1009E00047F772F9E889401CE8812989A0685DF71A
:1009F000E3FAF1802889B080208A3081A88870814C
:100A00000020B081C807C00FB073A88852214843A6
:100A10008E30308230464CF782F903984663204688
:100A20000FB0F0BDFFB5002093B006460124FE498B
:100A300049680A7821460C2A0CD06A4611730022B4
:100A40001192002E09D015990291169D1F2D54D98F
:100A5000402052E000242246119413990291149DE3
:100A6000F4E7029989184978012905D0172903D09C
:100A7000182901D0192912D1631E04E003AFFF5CCD
:100A80008F4204D05B1E5BB2002BF7DA03E0002B31
:100A900001DB4A2003E003AB1955641CE4B20B00F0
:100AA0005DF758FB1D2610101010101010101026A6
:100AB000262626262626262626262626101010102E
:100AC00010102600119B03E00BAFFF5C8F4204D097
:100AD0005B1E5BB2002BF7DA03E0002B01DB4A2040
:100AE00006E0119F0BABD9551199491CC9B2119160
:100AF0000299895C521C89188AB2AA4201D2002844
:100B0000AFD0AA4200D04A20761CF6B2022E01D203
:100B1000002894D017B0F0BD10B50022134607E0AE
:100B200084186478012C07D0845C521CA21892B2FD
:100B30008A42F5D3184610BD80188378FAE7F0B5DD
:100B40000646A9B01546002084006318DA789F781D
:100B500012025B783A4352BA1B041A430B5D072416
:100B60001B061A43231A9F0020AB401CDA510828A9
:100B7000EAD300218A0090190746C37880781B02C7
:100B8000034378785BBA00040343B05C10AA000604
:100B90000343601A800013503846223043780078AF
:100BA0001B0203433846203047785BBA3F04007885
:100BB0003B43000603430F27781A8000491C13505B
:100BC0000829D7D35CF706F9014630465CF77FFD6C
:100BD00000282DD05CF7FEF8034620AA10A968462D
:100BE0005DF780F900226846A11A8B009600C75C69
:100BF0007119CF70C75A3F0A8F70C7583F0C4F709A
:100C0000C35820311B0EAB550F239B1A9B00C65CAB
:100C1000CE70C65A521C360A8E70C658360C4E70AC
:100C2000C3581B0E0B70082ADED3002029B0F0BD7C
:100C30000120FBE7F7B500251746064641232A4663
:100C400029460A205AF7B4FF0446002E10D0012E80
:100C500002D0022E0CD105E02022611C002041F7B9
:100C6000A3FE04E0621C3946019841F74DFE207056
:100C700020465AF7B6FF2846FEBDF8B56B480090EF
:100C800007680C46002F7BD005461C35287E0028BF
:100C900076D0012802D0022872D102E02078002804
:100CA00019D038896249002688423AD107204BF78B
:100CB00023FC002835D042233E2200215D485AF70C
:100CC00077FF082101702178002913D0032141709A
:100CD0002178817043E055480226611C14302E763D
:100CE000202204465DF7E2F922465349304641F797
:100CF00015FE45E0002146701F22531A1B194718A4
:100D00005B78491CBB702029F7DB00213F22531A76
:100D100047181B1920375B78491CBB702029F6DB6C
:100D20001DE043493889491C88421AD108204BF7F5
:100D3000E3FB002815D022233E2200213D485AF72C
:100D400037FF09210170217800291BD01221417041
:100D50000021FF224318491C9A702029FADB4DF725
:100D6000D7FE2E7640205BF7A6FB009841F7DAFE0F
:100D70005AF761FF00980068002801D041F7C9FDCB
:100D80000020F8BD002146701F22531A1B19471876
:100D90005B78491CBB702029F7DBE0E770B5087869
:100DA00000250C46012809D01D2810D02B2812D070
:100DB0004022194655F7BCFE284670BD5BF765FA20
:100DC0001948012504601D4857F745FAF4E71C4807
:100DD00041F708FDF0E71B4801680029ECD101212B
:100DE0000160194841F704FEE6E770B5104D174C55
:100DF000223DAB422ED10F4809232A460021C01EB6
:100E00005AF7D6FE044608221149401C5DF74EF9F8
:100E100020790821084320710025257020464DF7D0
:100E200077FE284670BD00004C7EFD07287AFD073E
:100E3000252000000408000089E7F107030C0000EA
:100E4000C3C3C3C35077FD07CC7DFD070DC3F007B7
:100E50005CE5F107A047E5E7F1B584B00498FF49E8
:100E600080000C5804980502A81D0290002C15D093
:100E70006068818804290CD34188861D0C38009154
:100E800001903146049857F7BCFFF549884206D1D6
:100E900060680C385AF7CFFE0020606033E4F178C8
:100EA000B2780F02019928431743C880384640386A
:100EB0003F2819D803223946049854F729F8060028
:100EC000E6D0B07B0128E3D13420B07329460A3143
:100ED0000423E448029A5AF76BFEB189418010213D
:100EE00001705AF77EFED3E7616834200870022152
:100EF00000985AF74FFD05463146009A5DF7D6F83F
:100F000068782978000208436168C880E878A97881
:100F1000000208436168062F08810BD0042F09D016
:100F20006068052F10D00C385AF785FE28465AF70E
:100F3000ACFDB1E760688188052913D329798172F6
:100F40006168287988720DE0818805290AD329799A
:100F5000817261682879887260688188062901D366
:100F60006979C17260685AF73CFEDFE7FFB587B068
:100F70000E4609985AF7D1FF0999090A03910028EA
:100F800076D08800B54905900D58B749B079096BFE
:100F90000A225043B478081841F7A2FD019068680E
:100FA000002808D0012C2DD00398FFF755FF686862
:100FB000002802D026E0022C5AD1B088012702284E
:100FC00005D30198417800780C02044302E051F700
:100FD00091FE044651F78EFEA04201D20224002762
:100FE00020464C3083B29E49A048099A5AF7E0FD4A
:100FF000241D68604480002F01D0002000E03420D0
:101000006968087068680028BAD0811D0091B288AC
:101010000199841C071D01928088238882189A42B6
:1010200009D8009A8018019A5DF740F8398801982C
:101030000818388009E01A1A009BC0185DF736F8C6
:1010400020883880696834200870388804280FD3D5
:10105000009841780278080210432188001D8842D8
:1010600007D280B220803988814207D9388002E0D7
:1010700068E0884202D9696834200870388821887D
:1010800088425FD1686800990C380190039857F73F
:10109000B8FE69680978002951D1714988424ED05B
:1010A00003990F0201993843C880208802210190DA
:1010B0005AF770FC0490228800995CF7F7FF0498B7
:1010C00000283FD0696800208880019802226B4682
:1010D000039907C36868049B821C011D801D41F7AA
:1010E000D9FB6968087004985AF7CFFC6868418892
:1010F000002902D00178002954D0018940393F29C4
:1011000044D8017830291ED00146544A05980C393C
:101110001058083041F722FD69680398891D41F78E
:10112000CAFB4628686801891FD00322039853F739
:10113000EFFE00282CD0808A00282CD028E00398CD
:10114000FFF78AFE42E04A49098D0906C90F07D018
:1011500048490C380968099A898D89B25AF75EFDA9
:1011600068680C385AF767FD12E00322039853F7BA
:10117000CFFE04000CD039460A3104233948099ABD
:101180005AF716FDA1894180102101705AF729FDF7
:10119000002068601AE0686800220189039841F71E
:1011A00085FBF5E70189084640383F280ED8032221
:1011B000039853F7ADFE002808D0808A002805D197
:1011C000686800220189039841F770FBB07941F704
:1011D0007AFC00200BB0F0BDFFB58BB00646169828
:1011E0000027022821D00D980188149881427DD3D0
:1011F0007188084640383F2802D8159853F7C9FE31
:101200000C98361D0088149A80190E995CF74EFFD1
:101210000C980188149808180C9908800D9801887A
:101220001498081A0D99088069E100200E9D079016
:1012300069782C78090221433180E978AC78090279
:10124000214371808C46403904242D1D02460346FB
:101250008E46402900D3287861460DE0AC7DFD071D
:10126000FFFF0000260E0000E078FD07010A0000E5
:101270004C7EFD075876FD0704291FD0052914D0A0
:10128000062918D070463F283ED8159853F781FE9E
:101290000006000E04D0FC48008D0006C00F31D0BF
:1012A00002230120F94A002712E0697800290FD0B3
:1012B000F74A17230CE0F74A0F2309E0522802D01F
:1012C000D22802D002E0142000E01520F24A1F23A9
:1012D000002A7DD098427BD28000105804900028CC
:1012E000F7D0002008900590708800E006E14038B3
:1012F000402803D32878052430716D1C701D0090A0
:101300000498AFE03027EDE03327EBE0522864D0BB
:101310000CDC4B283FD004DC41286AD042285AD14B
:1013200011E04C2820D0502855D140E0632830D01F
:1013300004DC572818D061284DD19BE06C2864D07C
:10134000772848D109E00098297801700098641C3A
:10135000401CA4B26D1C009081E00498401C0490D5
:101360000178089881427AD10098A41C401C410859
:101370004900881C009068782A7800021043088091
:101380000599AD1CA4B2002969D0089000200590F1
:1013900065E00120FBE71022294600985CF786FEF5
:1013A000009810341030A4B21035009057E0204659
:1013B00040301499039088420DD840222946009865
:1013C0005CF774FE009840300090039884B200E00F
:1013D00079E0403543E0342741E00822294600986F
:1013E0005CF764FE009808340830A4B20835009019
:1013F00035E00622294600985CF758FE0098A41DA7
:10140000801DA4B2AD1D009029E01498001B80B28D
:1014100003903088001B001D81B2012007900498C2
:10142000401C04900098401C400840000090049824
:10143000007857281CD04228CDD100980170090AA5
:10144000417000982946801C0090039A5CF72EFE9C
:1014500003980399201884B20098401800900498CB
:10146000401C04900078002820D0002F19D01DE0E7
:101470004908E2E71498001B80B203900098039A91
:10148000401C41084900012000910790294600981E
:101490005CF70CFE03980099201884B20398081892
:1014A000DCE70D990988A14200D32FE70D98008849
:1014B000A04208D304990978002904D1079900298A
:1014C00003D1A04201D034270CE00D99001B088005
:1014D0000C9801880098801B001F08180C99002F99
:1014E00008800CD07088042809D0062807D040381E
:1014F000402804D30E984079707100E034273846B4
:101500000FB0F0BDFFB581B01F4616460C46104621
:101510005AF703FD00253F2802D02189062908D06B
:101520003B4632462146019854F7BFF80546284607
:10153000B4E4000701D50225F9E720780028F6D1A8
:10154000300AA11D41F7C1F8F1E7F3B581B0019868
:10155000524C850060590F464068CE8801462431C0
:10156000009146F7E3FE00994D4A40310091C98948
:10157000701A80B2904214D2B14212D060593146F2
:10158000406845F78CFF60590522791C1F305CF7D5
:101590008DFD019805210002401C80B25AF78BFC9A
:1015A000FEBD60590522791C1F305CF77FFD009855
:1015B000808841F767FFFEBDF8B53A4C06468500C6
:1015C0000F4660594821095C24290ED10069102278
:1015D000791D2E305CF76AFD615925204031087273
:1015E00000221146304652F739FE60594821095C05
:1015F0000C291FD100691022791D2E305CF756FD91
:1016000060595F210069095C09072DD401462E311C
:1016100010221E305CF76EFD00280CD060590921A5
:1016200040300172304653F737FB01460022304606
:1016300052F79FF9F8BD0421684601706A460521FA
:10164000304652F741FB6846017860200143684606
:101650000170304653F720FB0146684602780123AB
:10166000304652F79BFAF8BD304653F715FB012878
:101670001AD06059072140300172002211463046CD
:1016800052F7ECFDF8BD00004C7EFD0714F3F107A6
:101690001CF3F10778F3F107B4F3F1071879FD07AC
:1016A000FF7F00002C7EFD07615900200969C031D1
:1016B000887160590421026930461E3252F704FBDA
:1016C000605901694031897F002907D01A214030D3
:1016D00001720021304652F74BFED3E71B21403008
:1016E0000172304652F799FECCE7F8B5E64C054654
:1016F0008600A0594822125C192AC3D140224930E1
:10170000491D5CF7D3FCA0594022E04949305CF701
:10171000F1FC002805D0DD492846203959F749FF5A
:10172000B0E70B21684601706A460521284652F74A
:10173000CBFA68460178602001436846017028466C
:1017400053F7AAFA0146684602780123284652F761
:1017500025FA97E7FFB581B003980C46060A0025E5
:101760005AF7DBFB002818D0132816D0142814D001
:10177000C748B700C0592030407BC00628D5039821
:101780005AF7CBFB15280CD0A07941F79CF93046CD
:1017900045F7B3FD032806D015E0A07941F793F98A
:1017A0001FE002251DE0BA48C0592030407B4007A9
:1017B00004D53D21304641F7BEFD04E03D22002125
:1017C000304641F7C6FD3D21304644F713FE08E0A0
:1017D00020460C38AF498180C68020464DF798F9E5
:1017E00001252846A4E6F1B58EB00E9841F778F9A8
:1017F00004460E98694600794006C00F0A9006908C
:101800000A208883628BA449101A88427ED2E08A1B
:1018100006287BD31921C901884277D8238BFF2161
:10182000F5318B4272D85B1C990059184143491C11
:101830000A2349105A43914268DC217F00290CD1C8
:10184000617F002909D1A17F002906D1E17F00290C
:1018500003D12021095DC90658D027462037797861
:10186000C906C90E491F0C2950D2A18A81424DD800
:10187000E17C00294AD0421E082A01D9082000E054
:10188000401E814242D805A844F79CFD00283DD166
:10189000824D0622E861214608A85CF707FCA8787B
:1018A0002E46803E00287ED06079800901280AD02B
:1018B00020460A994AF7C4FE00285ED03821095C08
:1018C000002954D059E020464AF727FFE861002854
:1018D00004D10BA920464AF736FFE861F16A887AFD
:1018E000012801D0042810D1E86900280ED0062272
:1018F000253010315CF7FEFB002807D1E869F16A5A
:101900002030C07AC97B884200D100E0A2E0E969BA
:10191000002932D0062208A825315CF7C7FBE86908
:101920002B21095C07AA253006914AF76BFD002898
:101930000FD0E8692030C07A002811D16846584994
:10194000808B49F711FD07AA012155484AF75AFD36
:1019500006E007AA01210BA84AF754FD00280CD085
:10196000E9696846808B323149F714FD05E0421879
:10197000527D002A08D010296CDBF06A407A0228D8
:1019800006D0032804D00EE0491C1029EFDBF4E751
:101990006846808B0A2806D307AA20460A994AF788
:1019A00031FD002856D0002205A920464AF7D4FD73
:1019B00000284FD1F06A407A02280BD0032809D0C2
:1019C00000236846828A08A806994AF7E6FD00289F
:1019D00002D02EE00123F4E7E18A68460180218BE2
:1019E0004180618B81807878062241096846817345
:1019F0007878C106C90E684641732146801D5CF7A0
:101A000055FB0E9800794006C10F68460173838A22
:101A10002146B26D45F783FC0146B065684641F743
:101A200029FB0020B065214668461C31808A44F7B6
:101A30001CFD47F7BAFC194C20342079002805D04A
:101A4000002109205AF750FB002020710021084690
:101A50005AF731FA54E510B57022124912485CF772
:101A600025FB10493822383910485CF71FFB0E4817
:101A70000F49A03001600B49703941600A490D4897
:101A80002039086010BD70472C7EFD07EC7DFD07F6
:101A90001879FD0706080000770C0000E479FD07BF
:101AA00004E5F10774A0FC0720000840C000FC0713
:101AB0008CBFF107FF3F1000F8B53E4C6088C607A9
:101AC0006088F60FC005C50F608840084000608040
:101AD0006088FF270137B843608040F771FF40F707
:101AE00075FF00220821022040F764FF002800D083
:101AF00001206188A18861884908490031436180DB
:101B000061882A02B94311436180F8BD70B501258F
:101B100029492A020A60BFF34F8FBFF36F8F27490D
:101B20000A6027490B681C0A240240231C430C60EE
:101B3000214980390A601F494C880626B443241D78
:101B40004C804C882C434C804C8838252C434C804E
:101B50004C889C434C8001280FD14888330218439D
:101B6000488048881043488048882A0210434880AB
:101B70004888012292039043488070BD10B5114CF3
:101B8000E18A114ACBB21189248BC904890E6404FD
:101B9000640E001B093141430120C002401A80B28B
:101BA000584340031189000E090A090201431181BB
:101BB00010BD00002020005080E100E080E200E045
:101BC00008E400E000230050002C0050F8B50202A9
:101BD00005464123092134480A3259F7E9FF2721F4
:101BE0000170044600201F233049AA008F581E1A96
:101BF0004936BE5D2718401C7E702028F6DB002089
:101C00003F238E581F1A4937F65D27182037401C8E
:101C10007E702028F5DB5BF7DDF80146601C5BF782
:101C200056FD002812D10A2000906A460521284658
:101C300052F74AF8284653F72FF8009960221143CB
:101C4000CAB201460123284651F7A8FF204659F79A
:101C5000C8FFF8BD70B505460446008914490C3428
:101C600088B088421AD100201F216E460A1AA25C51
:101C70003254401C2028F9DB2022314620465CF7F4
:101C800015FA00203F210A1AA25C3254401C202879
:101C9000F9DB20226946A0185CF708FA284649F7C4
:101CA00024FB08B070BD0000270D00002C7EFD074E
:101CB00026200000F0B51FB40646002082B005467D
:101CC0004024019100901BE0019922460F463046C6
:101CD00000F0C4F9049A059B801A994110D310466C
:101CE000194622465CF726FA361A8F41019722469A
:101CF00001200021009F5CF71DFA38184D4100902B
:101D00002046641E0028DFDC019B009829463246ED
:101D100007B0F0BDF0B507460846584087B0C00F81
:101D2000049048000E46590040084908BC1A8841F2
:101D300005D2384631461E4617460B460246580025
:101D4000400810434CD0300D039040055900400D21
:101D5000490D0590401A0290402872DA18030121BB
:101D6000000B09050843019004980092002805D053
:101D7000019952420020884100920190029840212E
:101D80000A1A019900985CF7D5F905460C466B468E
:101D900007CB00F074F9C0197141039A0E0D0023AE
:101DA000D71756401A467A40164344D0049A002A60
:101DB0002DD0029A012A039A15DC1205C01A91410E
:101DC00001263605001C7141D20F059ED2070093F3
:101DD000019202962A46234600F071F907B0F0BD41
:101DE00038463146FAE71605224A0F46B218C01A9D
:101DF000B74101210905001C4F4100187F411146E0
:101E000018187941E20F10436D19644113E0E2079D
:101E10006D0815436408C2071443039A012612058E
:101E2000C01A91413605001C7141CE07400830436D
:101E30004908C01851412A46234600F033F9CDE73E
:101E4000FFE7049801224000C117121A00238B41BA
:101E500004983146C417381AA141EEE730B4012482
:101E6000E407634030BC55E730B40124E407614027
:101E700030BC4FE70000E0FFF0B51FB488B00B990D
:101E80000998002448400999C00F49004908099160
:101E9000C0070B990090490049080B9109990898CF
:101EA000A64608431CD00B990A98084318D00998F5
:101EB00001244000420D4800410D0998240500030B
:101EC000000B204309900B980003000B20430B905C
:101ED00050181C494018002201901446104605E095
:101EE000002001460DB0F0BD032801DA034600E0F2
:101EF00003239C46C11A0AAE0AE05F0008ADED5B01
:101F00004F00F75B7D430027AA187C41491C5B1EEC
:101F10006145F2DD410004AB5A522104120C0A4320
:101F2000240C401C0828DFDB0198029000997046C1
:101F300001910090059B049A0799069800F0BFF85C
:101F4000D0E700000DFCFFFFF0B50C465C4085B00B
:101F5000E40FE40703944C000026640859009446FB
:101F6000490802460296224321D062460A431ED007
:101F70006200570D4A000E032303550D012402464B
:101F80002C492405781B1B0B360B40182343264392
:101F9000614600901C46501AB44103D30098401C7F
:101FA000009002E0921800985B41002803DA0020BC
:101FB000014605B0F0BD002001210905074686460F
:101FC00011E064461D46141BB54106D36546521BFD
:101FD000B341744607430C43A646CD074008490861
:101FE000284392185B4105460D43EAD11046184339
:101FF00013D06046194650407140084306D06046F1
:10200000101AB34106D20122002306E00022012368
:10201000DB0702E00122D243531000987446010509
:10202000381C6141029C039D0019694100F03AF897
:10203000BFE70000FD030000064C0125064E05E049
:10204000E36807CC2B430C3C98471034B442F7D3D9
:10205000FEF762FA04D8FC0734D8FC0710B5202A32
:1020600004DB0846203AD040002110BD0B46D34087
:10207000D0402024A21A91400843194610BD10B543
:10208000202A06DBCB170846203A1041C1170B4324
:1020900006E00B461341D0402024A21A9140084389
:1020A000194610BD10B5002B08DA0024401C614110
:1020B00092185B411A4301D14008400010BDF0B5B1
:1020C0001FB482B005460C0003D0084607F018F98B
:1020D00002E007F015F9203002460090214628461C
:1020E0005CF728F8049B059A04460F4618431143F1
:1020F000084314D0184610431BD0009840210A1AF8
:1021000018460599FFF7AAFF05460E46009A05995D
:1021100004985CF70FF8084305D0012004E020463E
:10212000394607B0F0BD0020C11705430E432C43CC
:10213000374300990E986305401A7905E40A002296
:102140000C43FD0A0A3002D500200146E9E70105EB
:10215000101969410C9C0D9D00196941FFF7A2FF00
:10216000DFE770B54B005B0803430BD04B005C0D01
:10217000002633466542B341D417AD1AA34102DBB2
:102180000020014670BD12053018514170BD00009D
:102190000EB5C217C10F5040CA0740180021054BA9
:1021A0000293019200910A460B46FFF788FF03B0A5
:1021B00000BD0000330400000EB505490291002166
:1021C00000910A460B460191FFF779FF03B000BD6D
:1021D0003304000070B5CD0F4A0009030123090B39
:1021E0001B0519430B4BED070024520D9A4201DAEF
:1021F000002070BD074B34339A4203DC9A1AFFF774
:102200002DFF02E00449511888402C43F1D0404290
:1022100070BD0000FF030000CDFBFFFF014801215E
:102220000180704708150050F8B505252C07608916
:102230008007574E23D0A08A400701D505F03CFB0C
:10224000218C802001432184FF2171800421318071
:10225000218830220A432280218803220A432280D7
:102260004C49F288B3881204D2188A42F9D33580D7
:102270004021494A515A6180218C81432184474839
:1022800001884907FCD4218830208143218022889D
:102290000327BA4322800022009701231A404049B5
:1022A0000A702A0653D06D1E32883946022717431A
:1022B0009F433780042272803788174337800F4648
:1022C00022880243228022880A43228032885207D1
:1022D00001D500BFFAE72288014682432280228886
:1022E000BA432280F288B7881204D2192D481218F6
:1022F000042A13D94622002727488752077B002F3C
:1023000002D0192217012448C26D921CBA4200D390
:102310003A46C2651A46009F0846BEE746231E4855
:10232000C25A521CC25292B2142A009F0FD30022EA
:102330001948C2520246007C002800D01320D26DFA
:10234000521E824200D802461348C265009F61892E
:10235000890706D06189B9436181608C0121884376
:1023600060842089802101432181208A04218843BF
:102370002082A08A8007FCD540F701F80648406E0D
:10238000094908600948016801684907FCD5F8BD9A
:1023900000160050E9030000DC47FD070833005039
:1023A0005CD9FC0761F8FFFF080200401000004004
:1023B00080B505F06DFD80BD02480188C907FCD1DC
:1023C0007047C04640300050B0B5054C20212180F8
:1023D000044902250D80FFF7EBFFE587B0BDC0463D
:1023E0000430005044300050B0B5CE4920220A805D
:1023F000AD4C02256580FFF7DBFF2580B0BDC046F0
:10240000F0B591B016460A91019017980690001DFC
:102410000090169D281D0390002007901998109099
:1024200018980C90029205951878002800D121E1A7
:1024300001061ED4002D2CD02978401A6978072275
:102440000C460E9214400F91C9080994002C00D03C
:10245000491C00287BD4AF78794348432A46039C23
:1024600025186818D2784A43A11888422FD9059DAB
:102470006DE00699002900D1FAE000221146052AF4
:1024800000D1EFE00446944024060FD5521C491CAD
:10249000F5E70699002900D1EAE0202800D0E7E01E
:1024A00007988019069949784908DFE0724A114077
:1024B000042950D0032962D0022900D0D2E05978F3
:1024C000002900D1CEE05B1CC006420D63E00493FE
:1024D0000198079908180D900021089788B2B84212
:1024E00030D20A980B910C180026B7B20F98874289
:1024F00020D20E9807408021F94028780840109992
:10250000FF2905D1002810D00D98801980B204E071
:102510000D998919002803D088B2A1B20C9A02E063
:1025200088B2A1B2109A00F035FB072F00D16D1CC4
:10253000761CDAE70998002800D06D1C089F0B99DB
:10254000491CCBE7059D68780F90049B029E079875
:1025500080190F998AE05A78002A00D182E09C788D
:10256000002C7FD0D97800297CD0DB1C4007C00A22
:102570009206920B1018A206120D82180BE05A78E0
:10258000002A6FD0997800296CD09B1C0007000CA2
:102590009206120D12183F20084010435ED004939B
:1025A000069B5C78072122460E910A40511E089234
:1025B0008A410F94E10889189A7809925143CA1CFC
:1025C000DB785B1C009D5B1E46D0AC182E78360471
:1025D0006F783F02BE19AD78751985422546F2D154
:1025E0000198079A10180D90671A0022059D90B265
:1025F0000999884234D20A980B9216180024A5B281
:102600000F98854220D20E9805408021E940387805
:1026100008401099FF2905D1002810D00D98001905
:1026200080B204E00D990919002803D088B2B1B234
:102630000C9A02E088B2B1B2109A00F0ABFA072D02
:1026400000D17F1C641CDAE70898002800D07F1CAA
:10265000059D0B9A521CCAE7049B029E059D01E052
:10266000049B029E079880190699497840180790A4
:102670005B1CD9E611B0F0BDFF7F00000A480821BD
:1026800001800321090241810122428000228280CF
:1026900002220280C18023488022028041822022BF
:1026A0004280C1817047C0464230005080B50A2048
:1026B00000F03AF880BD80B50B2000F035F880BD01
:1026C00080B50C2000F030F880BD80B50D2000F002
:1026D0002BF880BD80B50E2000F026F880BD0000EC
:1026E00070B5032800D1042040010E4C049D002D3C
:1026F00003D001258D40055303E0251801268E40A7
:102700006E801343490061180818838070BDC0466D
:1027100001228A40032800D104204001014942528D
:102720007047C0460230005070B5C0B203460A3B45
:1027300001210A469A4093B20A4C1C195C40660873
:10274000094B1C880025360402D06D1C760CFAE774
:102750009443AAB20D46954025431D8081401A48F6
:10276000016070BDFFFF01000E1400500348C82136
:102770000180034808210180FEE7C0460031005077
:1027800002330050024800880F4810210160704752
:102790002C1300500B48018904220A43028101894D
:1027A00002220A430281018840220A43028006492C
:1027B00001220A604189054A11408918091D418199
:1027C0007047C0460800005080E200E0FC7F000037
:1027D00070B52020ED4A105C012818D1117E481EEA
:1027E0008141107F002801D02520C0000901526AD4
:1027F000002383420BD014460D46002D04D0FF2643
:102800002670641C6D1EF8E752185B1CF1E770BD62
:10281000F0B591B009910746DC480178012900D054
:10282000E6E00079002800D1E2E078000321081AF0
:102830000290012A75D100213AB208B20A92904260
:1028400000DDD5E048200890401A0790E620069069
:10285000401A05900846483004900846E630039038
:1028600001910A460B9710B20A99884246DC0398F8
:1028700080B20F90114648318DB201262946099F3A
:1028800010923A4633465B4CA047059880B20D90B3
:1028900029463A463346A04706981099401A85B211
:1028A000049881B20E9128463A463346A0470798CD
:1028B00081B20C9128463A463346A04708981099B1
:1028C000401A85B20D9829463A463346A0470F98DC
:1028D00029463A463346A04725461098E63084B24A
:1028E00020460C993A463346A84720460E993A4668
:1028F0000B9F3346A847109A521CB4E7029800B2C7
:10290000002805D4019AD01B80000A307F1E02E007
:10291000019A9000801D029941180291521C1146A3
:102920008AE70022099D38B211B2814260DC10466C
:10293000E63080B20F903946483189B20E910126B7
:1029400010922A4633462B4CA0470B97E6200C905A
:10295000109FC01B80B20D900E992A463346254C1D
:10296000A0470B980C99081A80B20A9039463C4649
:10297000483189B20E912A4633461E4FB847482740
:10298000381B81B20C910A982A463346194CA0474D
:102990000B98381A0B9F81B20A910D982A4633463C
:1029A000144CA0470F980A992A463346A047384648
:1029B000E63080B20F900C992A4633460D4CA04762
:1029C0000F980E992A4633460A4CA047029800B247
:1029D000002805D4109AD01B80000A307F1E02E028
:1029E000109A9000801D029941180291521C9AE79A
:1029F00011B0F0BDC12AFC07F0B58BB0029305926F
:102A00000A9107468A490878002801D02520C0008D
:102A1000B8420DD309794A1E9141C9010A9A9142DF
:102A200006D3059A904203D388B20299884201D214
:102A30000BB0F0BD0020C043012302990A9A8A42DC
:102A40000493019300D3019005998F4200D3049021
:102A5000119808901098079002980A99401AC11787
:102A600044184C40059AD21BD317D2185A400394ED
:102A70000992151B4840081A0690BCB20A9886B203
:102A800020463146079A089B00F01AF8680006991C
:102A9000814207DC05988442CAD004983F18039805
:102AA0002D1A680009998842E7DC02988642BFD057
:102AB0000A98019940180A9009982D18DDE7C04638
:102AC000FEB51C4602925A4A1378002B01D02523EA
:102AD000DB00834205D31279531E9A41D2018A4208
:102AE00000D2FEBD4E1E401E0090002108B2A04242
:102AF000F7DA009801914718002528B2A04207DABA
:102B0000701981B2B8B2029A00F044F86D1CF4E773
:102B10000199491CEAE7C046FEB5029315460E46E8
:102B2000074643490878002801D02520C000B84254
:102B30000BD309794A1E9141C901B14205D3A8427C
:102B400003D388B20299884200D2FEBD089CB1B27C
:102B500002988142F9D201200094019038462A4619
:102B60000B46FFF749FF761CF1E7C04620203049AD
:102B700001220A540A730A72054848620A770A76E3
:102B8000002008750A740A710A70704760D9FC0742
:102B9000D81EFD07F8B52523DC00254B1D78002D38
:102BA000264600D12E46864241D31D796E1EB54180
:102BB000ED018D423BD31F7C002F0D4600D1054611
:102BC00000951E7B002E254600D13546002F01D0F2
:102BD000C04329181646187D002801D0C84329187B
:102BE000187A451EA841C001009A82421FD8187B5E
:102BF000002800D1044688B2A04218D82021595C90
:102C0000012914D1197E4C1EA14148430001D1086D
:102C10004018596A0B5C072414408025002E02D00E
:102C2000E5402B4302E0EA43224113400B54F8BD38
:102C300060D9FC0770477047F8B5224CD54E224F3B
:102C4000A1880F200840022806D004281ED00C2896
:102C50001FD00128F4D133E0A348006A5022B15AB2
:102C60004C23F55AA9421BD2A388C0251D40C02D74
:102C700003D13B889B0703D4E2E7238A9B06DFD579
:102C80004B1CB352415C221F1180E7E706F060F84D
:102C9000D6E706F05DF82088012188432080CFE741
:102CA000208802218843208020888021884320803A
:102CB0008D48406A0028C3D0F05A05F0FBFFBFE7FB
:102CC000F8BDC046041100507C11005005200007DB
:102CD00001883022914301800188032291430180C1
:102CE0000421415E002906D50E490A88520702D503
:102CF0000A88D2070DD18088C00609D50A48018804
:102D0000090605D501218180018880229143018037
:102D100070470888022202430A80088801229043F3
:102D200008807047000200500001005010B5046890
:102D3000091BFF31994208D3194606E01378237026
:102D400003685C1C0460491E521C0029F6D1002057
:102D5000207010BD3748018802220A4302800549CD
:102D6000491C02D202889207FAD4002101814089CD
:102D70007047C0465F79FEFFFEB5054614480290D5
:102D800002AC204600F028F8142000F05FF807207D
:102D90008601002D00D08036264F38880D49084026
:102DA00080193880FFF7D6FF0190012000F04EF81F
:102DB0000025A570204600F00FF838880549084026
:102DC00080193880FFF7C6FF3D8001994018FEBD8D
:102DD000010001013FFC00001649174A0A80002249
:102DE0004A80164A40231360BFF34F8FBFF36F8FA3
:102DF00000281ED00A88124B13400278D2021A43D0
:102E00000A80104A40320B881340427892011A43DC
:102E10000A800A880C4B1340827892021A430A8077
:102E200009224A804A8802239A43C078400010430E
:102E300048807047001500500140000080E100E02C
:102E4000FFF70000FFFBFFFFFFFB000000280CD096
:102E500000BF00BF00BF00BF00BF00BF00BF00BF7A
:102E600000BF00BF00BF401EF0E77047F8B5232445
:102E7000C64F38571B4D2E461F36002800DA354600
:102E800004F058FC385D7F2101406818F2492E316A
:102E900006225BF70BF92220385C009021243D5D6F
:102EA000124809210422412358F782FE0746457043
:102EB00010203870B81C0B492A465BF7F7F8009AC7
:102EC0003A553846223031465BF7F0F8384658F725
:102ED00088FE0748074900F0EBF92021AB4A50541F
:102EE000F8BDC046C048FD075848FD070E0D00005C
:102EF000B80B00006D2EFC07B0B5A448817D0129F8
:102F000020D1C37D591E8B41017E002900D00721AD
:102F10009B01C57E0C4C002D07D001258D40A11CC6
:102F20000B431D800A23002406E023430124254689
:102F30008D401D807D218B00C476754811461A4650
:102F400000F0FCFC0020B0BD0230005070B58F498D
:102F5000087F01280BD101235C024E7F0F480E4DE4
:102F6000012E0DD16C8000234B770A230CE0012049
:102F70004002094908800948042159F7B5F807E0DB
:102F80002C804B774B218B0011461A4659F762F87B
:102F9000002070BDDC47FD074230005015040000E2
:102FA00070B59748092104241C23224658F700FED7
:102FB00005461B2028702426304603F019FE012107
:102FC000A9742C820021E981064AAA81FF220232DB
:102FD0002A816C606E806870A972284658F701FEDD
:102FE00070BDC046AD270000B0B5044624203FF7B1
:102FF00026FC0146092080020422134658F7D8FD1A
:10300000002545700470614C617D8170C57058F772
:10301000E8FD01202076FF210231E182617D002957
:1030200000D16575A076144804210A2259F712F8D8
:10303000B0BDC0461FB5144606220292044A019252
:10304000069A00921A46234600F014FB04B010BD05
:1030500068A8FC0710B5144600F010F84B48827EB3
:10306000002A00D0034A0448214600F067FC0020F3
:1030700010BDC0467017000013040000B0B501F089
:1030800003F80446414D687D84420FD224203FF767
:10309000D6FB01461D480422022358F789FD4470DF
:1030A0000021017058F79DFD6C752046A97D01290E
:1030B0002AD1174C062812D8E87D411E88414000CD
:1030C000297E002900D00721FFF722FB0120E876A6
:1030D0007D2082000421204658F7BCFF687D0D2822
:1030E00012D3A87D012809D1E87D411E8841400006
:1030F000297E002900D00721FFF70AFB0421204682
:1031000058F7F2FF0020E876B0BDC0460224000068
:103110001404000070B53A480921042418232246FB
:1031200058F746FD05461B202870FD26304603F063
:103130005FFD0021A982E96029616C606E80687082
:10314000284658F74EFD70BD0120704780B50F48E6
:10315000C17C032907D1017D01290CD10021C17453
:103160000175012080BD4A1CC2740C2048430849E7
:103170000818406806E04A1C02751C20484305A157
:103180000818C0688047002080BDC046DC47FD07A6
:1031900070A7FC07FD000000E8A8FC070E00000077
:1031A0001531FC07000000000000000000000000D6
:1031B000FF00000000000000000000000000000010
:1031C00000000000000000000000000070B50C4886
:1031D000092104240A23224658F7EAFC05461B204D
:1031E00028701426304603F003FDFF217431298135
:1031F0006C606E806870284658F7F3FC70BDC0465E
:103200001B0D00001FB5144601220292044A0192D0
:10321000069A00921A46234600F02CFA04B010BD1C
:1032200098A8FC0710B5044601020A310948042297
:10323000022358F7BDFC0C216143074A51183F2275
:1032400000238B54132141700121017058F7C9FCF0
:1032500010BDC046040E00005848FD07F8B50092A6
:103260000D468100104A56585418002E0AD101020A
:103270000A310E4804271E233A4658F799FC0646A1
:1032800007702060B71C102138465AF728FF3846CF
:103290002946009A5AF70AFF01207070304658F705
:1032A000A0FC00202060F8BDD41EFD07140E000015
:1032B000B0B500280ED002461148824211D8002431
:1032C000214823460A2B19D00568002D10D0001D77
:1032D0005B1CF7E78348C8210180834808210180EF
:1032E000FEE78048C82101807F4808210180FEE771
:1032F00001605C1CE0B2114600F056FFE0B2B0BDC8
:10330000FCFF3F00F8B50446401E09281AD8A0006B
:103310000D494018071F3868002813D00B4DA842EC
:1033200010D00B482018401C0426314658F7DCFE0C
:103330003D60082306483146324658F739FC047090
:1033400058F74FFCF8BDC0462449FD07D58BFC0754
:1033500002040000F0B585B0039302920E460746C2
:103360000020041D242C0ED004A900910A490D58F8
:1033700038463146029A039BA84700282046F0D1E0
:1033800004A8007806E038463146029A039B05F00F
:10339000C7FD002005B0F0BDC0A8FC07FEB506467D
:1033A00008050D0B002800D06D1C002D00D1012553
:1033B00085480640FF2000241A4F0195AC422CD0CE
:1033C00004F0D6FD002828D104F052FE002824D1B4
:1033D000022004F067FE012040070296304304F00B
:1033E00075FE0026104D04F00BFEC0070CD0388887
:1033F0000006F8D528680004F5D40C4886420BD0A6
:10340000761C58F7EAFFEEE7029805490818461CB3
:10341000641C0020019DD1E7FF2040B2FEBDC046E4
:10342000FF0F0000080000503000004080841E00A4
:10343000F0B585B08A4206D2A848C8210180A848C4
:1034400008210180FEE70446101F02900492D01E5E
:1034500001900091C81E039000252846C7B203982A
:10346000874215DAF843049946183FF784FA010EAB
:10347000A155A119491E020C0A700199C91B020A23
:1034800062540299C91B6054381D291DCDB2E5E76D
:103490000098401B01060023DE43002914D0754329
:1034A0000499091949194D1EC0B2C70003933FF78B
:1034B00062FA039B18217A18182A05D00246CA40DE
:1034C0002A70AD190839F6E704980099411AC8B274
:1034D0000919491E002803D00B708919401EF9E70D
:1034E00005B0F0BD0031005002330050F0B587B098
:1034F00015460E46049034480840884202D13046B2
:10350000294608E0A9190A467240120B05D001228B
:1035100012038018091AFFF741FF0024204604F027
:10352000C1FD2A488068871BAF4200D32F46012087
:103530000390000206903018FF218843411E019439
:1035400025463C460297BD423AD2A01988420591D1
:1035500001D9881B441C04F00BFD002831D104F074
:1035600087FD00282DD1022004F09CFD04F0B4FC5E
:10357000039840060643304604F08AFC002004F01D
:1035800091FDA0B206998842264600D3069E049873
:103590004719300405D0387804F07AFC761E7F1C79
:1035A000F7E704F091FC04F04FFD002809D10698DC
:1035B000059908186519029F7C1B4E1C0146C2E73D
:1035C000019807B0F0BDC04600F0FFFF50D9FC07DE
:1035D0001FB514460E220292044A0192069A0092E6
:1035E0001A46234600F046F804B010BDC0A7FC07F9
:1035F00010B5014601200A4A914210D3121D914292
:103600000DD8029CF231C8B28100064A50580028F9
:1036100003D0511800220A6080470020207010BD9E
:103620000E040000C01EFD071CB52C23744CE35C87
:10363000132B03D101AB04F0B3FC1CBD0020C0432D
:103640001CBDC0461FB5144607220292044A0192CF
:10365000069A00921A46234600F00CF804B010BDFA
:1036600030A8FC07E0B504F0D5FC01A804F044FC48
:103670008CBD0000F0B585B001250C9C002C20D03D
:1036800001950291039304920B9B0A99E500ED18B2
:10369000083D661C104B761E012E11DB2C462F8830
:1036A000874203D02546083D9F42F4D16468002C30
:1036B0000AD00D4602AB0ECBA0472870002500E0D3
:1036C000019D284605B0F0BD9748C8210180974864
:1036D00008210180FEE7C046FFFF000000310050D6
:1036E0000233005070B50B480424092122460B46D2
:1036F00058F75EFA05461B202870FC26304603F07A
:1037000077FA002129726C606E806870284658F73D
:1037100068FA70BD1B0D00001FB51446042202920A
:10372000044A0192069A00921A462346FFF7A2FF26
:1037300004B010BDA0A8FC07F8B504461C48C0683A
:103740000F210140E171010F2171C1B20909A1717D
:103750000101090F61710103090FE1700102090FF5
:10376000A1700105090F61700004000F2070012293
:1037700000920322150208230E4F2A46B847E1792A
:10378000A0790026009607232A46B847E178A0785A
:10379000009606232A46B8476179207900960523CA
:1037A0003246B84720786178E84A51721072F8BD05
:1037B0005848FD07E126FC07F8B52C24FB4D285D91
:1037C000032817D1EFF31087012686F310880D48E0
:1037D0000188B14301800C4801880C4A0A400280EC
:1037E00004F072FB002F02D086F3108802E0002064
:1037F00080F3108814202855002004F01DF8F8BD2F
:10380000DC47FD070012005004000050FFF70000E5
:1038100070B50C460146049D3F4881421FD03F4A87
:10382000914229D03E48814238D12078401E092853
:103830004FD880003E4A11583F4B994265D03D48D1
:10384000814266D13548042108230A4658F7B0F969
:10385000217801706168416058F7C3F959E06268E6
:10386000002A44D02F48824248D220782B49401861
:10387000042158F7EFFB4CE02078411ECAB2092A18
:103880002ED889002A4A53582A4EB34241D15118A2
:103890008A6A0A60616800F087FC3AE0531C0120E4
:1038A000994238D30A32914235D8C81EC0B2411E5F
:1038B0008A001F4B995800292BD01E4CA14228D0BA
:1038C0001D4CA14225D09A180023136093628847AB
:1038D0001FE0ED48C8210180EC4808210180FEE787
:1038E000E948C8210180E94808210180FEE7E6484F
:1038F000C8210180E54808210180FEE7E248C8218F
:103900000180E24808210180FEE7101800210160D3
:1039100081620020287070BD0104000003040000D3
:1039200002040000FDFF3F00003100500233005050
:103930002449FD07D78BFC07D58BFC0780B5002AEF
:1039400000D1012258F786FB80BDFEB51C460D460E
:1039500006460027002801D4384600E00120294609
:103960000A394B424B410340019300D07642002A72
:1039700001D0372000E05720029008980090304690
:1039800029465AF719FB29464143711A0A2901DBD6
:10399000029A00E030228918E1557F1C0028064673
:1039A000EDDC00998F4203D23020E0557F1CF9E70F
:1039B0000198002804D02D20E055E019421C00E0B9
:1039C000E21900201070101B4108521E002907D078
:1039D0002378157825701370491E521E641CF5E774
:1039E000FEBD000083B0F0B5CAB006464F915092BC
:1039F00051934FAC029403A8499001210D1A3178DC
:103A00002A18FF2A73D825290ED17778B21C302FB7
:103A100011D1117800296AD03039CAB20A2A00D3EC
:103A20000021F778321D07E0761C017000214170FB
:103A3000401C499057E0002104233B436C2B02D1EA
:103A40001778561C00E01646582F21D0632F3ED021
:103A5000642F25D0692F23D0732F3AD0752F17D01C
:103A6000782F15D0002F42D049A803A925232CA2D6
:103A7000FFF75CF949982918FF2904D8077000213D
:103A80004170401C499049A803A902232EA228E0B6
:103A900001CCC9B2752F0DD100910A2100220EE090
:103AA00001CCC9B200910A21002243AF3B46FFF787
:103AB0004CFF12E00091583F7A427A41102143AB0B
:103AC000FFF743FF034649A803A943AA09E002CC34
:103AD000ABE780CC384600F06DF8034649A803A94F
:103AE0003A46FFF723F931784998002988D103A98C
:103AF000441A012C0FDB2D4D2E78A019FF2802DD72
:103B000000F026F82E782A48801903A922465AF791
:103B1000CDFA301928704AB0F0BC01BC03B00047A0
:103B2000464154414C3A20756E737570706F7274D3
:103B30006564207072696E74662063686172616387
:103B40007465723A200000002E0A0000DC47FD0771
:103B5000F8B516480078401D032157F71BFF0446AF
:103B60000027054680C51148067811492846324687
:103B70005AF79CFAAF550D4DEFF31081012080F3F9
:103B800010886A6D002A06D013461268002AFBD1FD
:103B90001C60276001E06C656870002902D080F32A
:103BA000108801E087F310882F70F8BDDC47FD070F
:103BB00040D8FC070021425C491C002AFBD1481E6A
:103BC0007047B0B50C460025202D04D03EF7D3FE3B
:103BD00060556D1CF8E70020B0BD00207047000064
:103BE000F8B51E4615460C46104658F796F90028BB
:103BF00001D0022625E0242003F06EFF0746262090
:103C0000395C2078884211D2617864290ED838183E
:103C1000817601262846314658F74DF927200021A4
:103C200039540C3C7C6100F081F80AE0064801231D
:103C300031462A4657F7BCFF8121017057F7D1FF63
:103C400000263046F8BDC04603240000002070471F
:103C5000082904D20069401800214177704778484C
:103C6000C8210180774808210180FEE7082904D295
:103C7000006940180021417770477148C8210180D0
:103C8000704808210180FEE70031005002330050E7
:103C9000B0B5054604696069002801D057F7F5FE04
:103CA00000202861204657F7F0FEB0BDF8B51E464B
:103CB00015460C46104658F730F9002801D0022668
:103CC0002EE0242003F008FF07462078082815D8A6
:103CD00050F7D6FF1349884210D0012628463146B6
:103CE00058F7E9F8207838186178417727200021C3
:103CF00039540C3C7C6100F019F811E04F48022364
:103D000031462A4657F754FF21780170082902D816
:103D10007621C94300E04021417057F762FF002639
:103D20003046F8BDFFFF000000207047FEB524209C
:103D300003F0D2FE4369002B22D006469F883E48FE
:103D4000874224D009208002874230D10097272063
:103D5000325C187B019037181D3734461A341846E8
:103D60000E3002962736012A28D83D78D540ED0737
:103D700003D0A55C815CA9423DD1521C3270F2E7B0
:103D80002F48C82101802F4808210180FEE7272005
:103D9000305C34461D3435462735072812D8215C5F
:103DA0001A7BD140C9071ED1401C2870F5E7244872
:103DB000C8210180234808210180FEE7029E009F60
:103DC000019C00E0FF241C4887421DD0092080028E
:103DD000874226D1DA8819891848022357F7E8FE66
:103DE0000470411C18E0C1B2304600F017F9287881
:103DF000401C2870FEBDD2B20298019900F00EF965
:103E00003078401C3070FEBDDA8819890B48801C60
:103E1000012357F7CDFE014600220A7057F7E1FE55
:103E20007369184657F731FE002171617288954811
:103E3000104058F740F8FEBD0224000001240000A5
:103E40000031005002330050FEB501920291054648
:103E5000242003F041FE02462532078B2630002342
:103E600002990B70BEB28021AE421ED80478A342E4
:103E70001BD2B11CA94210D21678DE40F60703D03F
:103E8000491C8EB2AE420AD0022C03D3491C8CB21C
:103E9000AC4206D05B1C4F1CE2E7E81B02E00320AB
:103EA00000E004200199087000210846FEBD0000D2
:103EB000F0B591B00C910B90169F3878401E0128F8
:103EC0007CD81D460792282401212046059157F7EA
:103ED00061FD064621465AF702F9387826217054CA
:103EE0001E21069529407F22D24389180A9625363D
:103EF0000D96002404253A4610AFC9B20891234616
:103F00000992002B5CD1C0B2844259D20E970FA8FF
:103F10000721017016197078A0400D9B1978014394
:103F20001970505B51194A88120410188A88C98880
:103F30000A9B585108048018591948607078012864
:103F400004D10FA80F2101701F2000E017200D9948
:103F50004978022901D30FA908700C9800880E9F98
:103F600038800B98808A00210091019028480290A7
:103F7000089803900FAA0523384626494CF73BFBC7
:103F80000346002814D171783888012901D10146EF
:103F900000E0411E491D0C9A1180717801290E9F85
:103FA00006D1801C80B21C491E464CF7E2F933460C
:103FB000BF1C0835099A1078641CA2E7812421E00F
:103FC000002B04D00A981C4657F75FFD1AE01098A2
:103FD0000C9908800B9A0A9B13610C495160188355
:103FE0002420D0820598D08118461C309060069815
:103FF000C003079908431880908A588000242146FE
:1040000057F759FFE0B211B0F0BDC04668A7FC07F2
:10401000ECA6FC070F1800000102000070B5144662
:1040200005464088D34A0240C120000109020831F8
:10403000092357F7BDFD064612203070242003F0F7
:104040004BFD2621415CA1420FD901462531008B51
:10405000002294420BD00B78D340DB0701D005231C
:1040600000E004231818521CF3E7002000E0801C35
:104070000121F180B0802819807E3072304657F7D8
:10408000B0FD70BDFF7F0000FEB50125E802334C96
:10409000218801432180A8032188014321802088B1
:1040A000284320801420FEF7D1FE6802A080E08023
:1040B0002803218801432180208829490840208045
:1040C000AE02FEF747FE218831432180EF4378435B
:1040D00055210D010195B035401902902148461C2B
:1040E000FEF738FEA1883140029A1143A18078433F
:1040F0004019E18831400143E18020881849084097
:104100002080208818490140218000242046FEF7A5
:1041100033FE80B201096E2901D964241BE0019AA3
:104120001146E03188420AD9000411494018BF21E4
:1041300059F758FF482141430C0C1C340BE09042C6
:1041400009D9000409494018E02159F74BFF18210B
:104150004143080C041DE0B2FEBDC04600150050EE
:10416000FFFB0000FFFBFFFFFFEF00000000B0FAC5
:104170000000D0F910B50446FD203EF760FB014673
:1041800008480422082357F713FD0221818041804B
:10419000012141702178627812025118C18057F7CD
:1041A00020FD10BD06FD000070B50C4605461949FE
:1041B0000888000618480ED5184A126812040AD456
:1041C000174A1288D20706D14019801C04212246C2
:1041D00057F740FF70BDEFF31083012282F3108880
:1041E0000988090603D40F490E8816430E80002B58
:1041F00002D082F3108802E0002181F310880421AC
:1042000008230A4657F7D4FC4460057057F7E9FCC9
:1042100070BDC0460800005001040000300000409E
:104220005877FD07083300507047000070B51446FA
:104230000D460646FD2003F04FFC002C0CD0002D4F
:1042400011D010300068002814D00179B142F9D1A2
:1042500041792980801D0FE0A348C8210180A3482F
:1042600008210180FEE7A048C82101809F4808215D
:104270000180FEE700202880206070BD70B51546E3
:104280000C46104657F749FE002813D1FD2003F0D5
:1042900023FC06460848082106232A4657F788FCCF
:1042A000A1884180A1790171B1886288511801808B
:1042B00057F797FC002070BD180C0000FEB5029265
:1042C0000F460546FD2003F007FC06461036019711
:1042D00034462468002C0DD02079A842F9D16079A9
:1042E000B84214D00022304621463EF78BFC2046CF
:1042F00057F7CBFB08370121384657F74BFB0446ED
:10430000394659F7ECFE304621463EF727FC019A24
:1043100062712571A01D029959F7C8FEFEBD00000B
:10432000FEB50291264D1435006901900127254EF6
:10433000254C0E2F0FD03046F840C00708D0286813
:104340000088A04204D1F9B20022029800F042FA9B
:1043500014357F1CEDE702200199085E6549014094
:10436000C20B0298000210400843002157F7A3FD3A
:10437000FEBDC046FF7F0000F8B50091072916D8A2
:104380000F4D143501260F4F0F4C0E2E16D0384608
:10439000F040C00708D028680088A04204D1F1B2DC
:1043A0000022009800F016FA1435761CEDE74E480E
:1043B000C82101804D4808210180FEE7F8BDC046B4
:1043C000E8A8FC075A3500000229000070B5054630
:1043D0000469264610363068002805D030463EF77E
:1043E000A1FB57F752FBF6E700202861204657F75C
:1043F0004CFB70BD7CB5FD2003F06EFB8668002E83
:104400002CD00446407B6D4601AA2946FFF70EFFDB
:104410002888082829D10C36227B0198072A2BD816
:104420001146521C2273435C7578002D02D0DB07C5
:10443000F4D001E09B07F1D5A068C288B388C12001
:1044400000010902083189B208339BB257F7B0FB6B
:104450000546707800281DD012201CE0F948C821BC
:104460000180F94808210180FEE7F648C821018053
:10447000F54808210180FEE7A068C28801897378A9
:104480001B48002B18D0042357F792FB718801803A
:10449000811C19E013202870A08871880818A88052
:1044A000B088E88028460830B288B11D59F7FEFD73
:1044B000284657F796FB7CBD801C80B2062357F731
:1044C00077FB71884180011D00250D7057F789FB2E
:1044D000A06857F7DAFAA5606188064808402946BF
:1044E00057F7E9FC7CBDC046003100500233005054
:1044F00007FD0000FF7F000010B50446FD2003F01B
:10450000EBFA8179A14202D98088001900E00020ED
:1045100080B210BDB0B50C460546FD2003F0DCFAB4
:10452000014682888020AA4206D889798918A94242
:1045300002D9A81A20700020B0BD0000F0B597B0D5
:104540001E4602920B9105462824012120460E9119
:1045500057F720FA0746214659F7C1FD07950497FA
:104560002F611E20019630403F21C943411803911D
:104570005F21C943411805917F21C9434018069026
:1045800000228F4F904E032A00D1DFE00798848AE3
:1045900013A88A490180511C8A480991415C0A92FA
:1045A000855C681CC2B20F929142129100D80146FC
:1045B000E8430818C1B2182048431830032157F7C0
:1045C000E9F901460B980088088011914C80142469
:1045D00020460895684330180279022A069903D0CC
:1045E000042A059900D00399119A11710169901D4F
:1045F000102259F75BFD0F9D6C433619002710966A
:104600003C462819129988424DD23079102816D08C
:10461000042826D0022842D11198C519B0890D90DE
:10462000B0680C9030680178407868762976284622
:104630001A300E2159F753FD0C99080C2AE01198F5
:10464000C519284618303168102259F72FFDB06877
:104650002885B189A9850E99C9040143080C68858C
:104660001CE01198C519B0890D90B0680C903068A5
:10467000017842788378C078E876AB766A762976D6
:1046800028461C300C2159F72AFD0E9880040C99FD
:104690000843000C688529850D98A8850F9D143660
:1046A0001837641CADE7119844714BF7ECFB0446D6
:1046B0000028434F15D0119857F7E7F90A980028BA
:1046C00003D10B9800880499888012980899401AA1
:1046D0000B9A118840181080002C099A3A4E6AD122
:1046E00051E7119800880B99088000242646002C79
:1046F000E1D112988542DED2761C0024022D20D012
:10470000072D1ED03148E840C0071AD11098C18942
:104710003846E840C00709D0109800680278407811
:104720000002801813AA128890420AD0F0B2119A9F
:104730001288101880B2109A136900224BF77DFC82
:1047400004461098143010906D1CD0E70E20049A87
:104750009071FD200799C8820E9DCD811C4848604C
:10476000888A50801046243088600198C0030299DE
:1047700008431080103210463EF7CCF900241594FF
:10478000149414360E2D11D03846E840C0070AD0D4
:104790000A48FF3031680988814204D1E8B2082113
:1047A00014AAFFF78BFD14366D1CEBE70798808A7F
:1047B000214657F780FBE0B217B0F0BD0328000098
:1047C0005A35000047D7FC07E8A8FC07CE1C0000BC
:1047D000ACA6FC07F0B585B008281DD215460C46DE
:1047E000064604AF03AA08463946FFF71FFD3F8877
:1047F000002F18D0039900291CD0009501AD284640
:104800003A4659F753FC0098A855204639462A469F
:10481000FFF754FD05B0F0BD4848C8210180484865
:1048200008210180FEE74548C8210180444808214D
:104830000180FEE74148C8210180414808210180EC
:10484000FEE7C0460031005002330050FEB514466A
:104850000E46FD2003F040F90546878800967688CD
:104860000194204657F759FB012801D1022726E081
:10487000F01980B202F05EF900280BD002A9FFF710
:1048800049FE00280DD02D48C82101802C48082160
:104890000180FEE72948C8210180294808210180BC
:1048A000FEE701270198394657F705FB00202873DA
:1048B00000980C38A86002986873FFF79BFD384693
:1048C000FEBDC046FEB514460E46FD2003F004F9B9
:1048D00005468788009676880194204657F71DFB89
:1048E000012801D1022726E0F01980B202F022F956
:1048F00000280BD002A9FFF70DFE00280DD00F48AD
:10490000C82101800E4808210180FEE70B48C8211C
:1049100001800B4808210180FEE7012701983946F4
:1049200057F7C9FA0020287300980C38A86002983D
:104930006873FFF75FFD3846FEBDC046003100508A
:104940000233005010B50C46FD2003F0C5F88088F6
:104950006188081880B2A188A31D002422464BF765
:104960006CFB204610BD000070B514460D46104685
:1049700057F7D3FA01282FD1287801020831AA79F4
:104980001648002A0CD089B20623224657F710F9A0
:104990000646A878FFF7B0FD80213171308014E021
:1049A000AA8889B2921D93B2224657F701F90646AA
:1049B000A878FFF7A1FD002131713080A8887080B0
:1049C000701DAA88E91D59F771FB304657F709F9A0
:1049D0000021204657F76FFA002070BD140C00002C
:1049E00070B50446032800D2521E95B26818A90873
:1049F00046186421284659F7DFFA361A19200101B2
:104A0000284659F7D9FA3018A10005A28918091FBC
:104A100009684018072159F7E5FAC8B270BDC046C9
:104A2000000000000300000002000000050000007C
:104A3000000000000300000005000000010000006D
:104A40000400000006000000020000000400000056
:104A50007047704780B559F717FB80BD80B559F78F
:104A60001CFB80BDF0B585B00024204603F01AFB86
:104A700003F02AFA2725AD4E705D411E032900D9A7
:104A80004BE1C0467944097949008F4401512F39DF
:104A9000039564207075FEF7F1FAAAA0FEF7A2FF55
:104AA000FDF7ECFD2620345CA14D80266E807D2034
:104AB000000104F067F82E80A54804F063F8002C8C
:104AC00051D02C20FDF780FC2820FDF78DFCFDF750
:104AD00073FC3220FDF778FC0024A14D462C00D158
:104AE0009BE0285DFDF780FC641CF7E72620315C25
:104AF000002900D1AEE02220FDF766FC0420AFE0E3
:104B0000FEF7BCFA8A48C08FC00700D0B1E07455E8
:104B100088A0FEF767FF1020FDF756FC0120FDF787
:104B200063FC04A8FF2141700170FFF723FBFAE04A
:104B300003952620365C2420FDF746FC2520C50081
:104B4000002E00D197E000247D4EAC4200D1A0E0C1
:104B50000027102F04D0F05DFDF746FC7F1CF8E71E
:104B60001036641CF1E7FDF727FC1220794DA847A9
:104B7000FDF722FC7420A8475420774FB8477E20C9
:104B8000A8473B200290B84701263046A847272077
:104B90000190B8473046B84700242046B847204621
:104BA000B8471120A8473046B8474420A8472046B8
:104BB000B8470F20B8474520A8470198B847304666
:104BC000B8472046B8472046B8473C20A84730465B
:104BD000B8472C20A8475020B8470320A8471520E5
:104BE000B8470420A8474120B847A820B847322634
:104BF0003046B8473A20A8473020B8470298A8471F
:104C00000A20B8473046A847544D484E462C54D049
:104C1000285DFDF7E9FB641CF8E737204D4DA847F8
:104C200000244D4E2046B0472046B0472046B047AE
:104C30002046B0474020B0472046B0472046B04706
:104C40002220A847C020B0472020A847FDF7B4FB8A
:104C5000364E46E0012131542220FDF7B5FBC42039
:104C6000FDF7C2FB2020FDF7AFFB705D401C7055C7
:104C700053E0705D51E0324EAC4237D00027102F28
:104C800004D0F05DFDF7B0FB7F1CF8E71036641C24
:104C9000F2E72620FDF798FB0024294EAC4237D0DE
:104CA0000027102F06D0F15DFF204840FDF79CFB48
:104CB0007F1CF6E71036641CF0E7FDF77DFB4E2005
:104CC000FDF782FB00242046B8474F20FDF77CFB10
:104CD00027252846B8470120B8472846B847204628
:104CE000B8470399705C401C705416E02620FDF70D
:104CF0006BFB0024124EAC420AD00027102F04D0C8
:104D0000F05DFDF771FB7F1CF8E71036641CF2E7DD
:104D10000399064A505C401C5054000603D00A20F8
:104D20001049FEF7C5FA05B0F0BDC046DC47FD07E7
:104D3000023000506570645F736C6565700A000036
:104D4000D81EFD076570645F696E69740A00000013
:104D500088130000C923FC07E923FC0768AAFC07A5
:104D6000B4AAFC07654AFC077047704770B5054652
:104D70000469261D3068002805D030463DF7D2FE74
:104D800056F783FEF6E700202861204656F77DFEA1
:104D900070BD0000F0B58BB01E4607920F4604466A
:104DA00010980690008808900021012002460929E9
:104DB00013D003258540099020463446089ECE40F6
:104DC0003B46012737407E421F462E40324326464F
:104DD00004460998801C491CE9E70A928020304368
:104DE0009E210140A08A03911D490291019000205B
:104DF00000901C490AAA132338464BF7FCFB0546D2
:104E0000002829D10897202701210591384656F717
:104E1000C1FD09960646394659F761F926613046C3
:104E20001E3011496160A0600898008830830598A1
:104E3000E0811420E082A08A70800998C00307995D
:104E400008433080069800887083301D3DF762FE6D
:104E5000A08A002157F72FF828460BB0F0BDC046B6
:104E600040A5FC070A1800004CA6FC07FEB50193FC
:104E700002920C46142002F02FFE2778082F14D837
:104E80000546418B008B3A4600F0F2F800280ED020
:104E900060788D26802839D8082F0AD0072F0BD0AC
:104EA000062F0BD1082809D030E081262EE082267B
:104EB0002CE0072802D029E0062827D32E1D3546EE
:104EC0002D68002D0BD02979B942F9D10022304646
:104ED00029463DF797FE284656F7D7FD60780830FB
:104EE000012156F757FD05466178083159F7F7F863
:104EF0002078287160786871A81D6278A11C59F724
:104F0000D5F8304629463DF729FE002606480223FB
:104F10000199029A56F74CFE21780170467056F7B7
:104F200060FE0020FEBDC04601140000F8B5144626
:104F30000D46104656F7F1FF012835D1142002F036
:104F4000CBFD0646077F418B008B3A4600F090F878
:104F50000090707F010208312A781448974212D1DC
:104F60006A7889B2931D224656F722FE0746002032
:104F700038710098388068787880781D6A78A91C24
:104F800059F794F809E089B20623224656F710FE35
:104F900007468020387100983880384656F721FE41
:104FA0000021204656F787FF0020F8BD140C0000B2
:104FB000F8B50878082812D80C460B251BA6C04661
:104FC00078440079400087441C0411040707141733
:104FD0001A0007251A4E14E00F25184E11E022483A
:104FE000C8210180214808210180FEE70A2515A675
:104FF00007E0082518A604E006250F4E01E0072566
:1050000013A6AF1C174819463B4656F7D1FD074675
:10501000207838707D70B81C31462A4659F746F81A
:10502000384656F7DEFD0020F8BDC0464469616C85
:105030006F672053656D6900E6D7FC0790D7FC07C2
:10504000A0D7FC07312E302E302E302D4C450000DD
:1050500001D2008005000100123456FFFE9ABCDE2A
:105060000000000003140000003100500233005023
:10507000B0B58BB2411C00200446092C0DD01D4652
:10508000E540ED0702D0A24202D0891C641CF4E77F
:10509000092A01D0481C00E0002080B2B0BD000009
:1050A000F0B597B0EF4F38680125EF4C39463431F1
:1050B00003F092FD03CF083F00290AD0411AE122F4
:1050C0001201914205D839217E5C002E01D00023C7
:1050D00003E0786039217E5C2B462921675CB7426A
:1050E00000D066542421625C022A08D0012A56D0DE
:1050F000002A00D197E000226254DA4FD6E71C461E
:10510000FDF734FDD9480575D9494162D548056890
:1051100015A928460E9103F05FFDB81B411E88417A
:105120000443012C00D03EE2079508940E98C07805
:105130000A90D04815990C1815A88578FDF748FBFA
:10514000A2B2681CC3B20FACCB4920460D920C939F
:1051500004F0C2F8FF200E90039000270297C74E7C
:105160000196C74800903220022101252A46234695
:10517000FDF746F9C34C072F00D14DE108CC0022C2
:10518000C1480090019602920E9803901C2078432B
:10519000123080B21921FDF733F97F1CEBE7FDF7E0
:1051A000E5FCB2480575B2494162AE48006815ACED
:1051B000214603F011FDAF4815990D18E0780A90CB
:1051C000A478FDF705FBADB2601CC3B20FAFAA49CE
:1051D00038462A460C9304F07FF8FF200D90039088
:1051E00000260296A54C0194A54800903220022189
:1051F00001220E923B462746FDF702F9A14C072EED
:1052000000D18BE008CC00229F48009001970292C9
:105210000D9803901C207043123080B21921FDF7C5
:10522000EFF8761CEBE7FDF7A1FC90490D7590486F
:1052300048620D46FDF7CCFA36208A4A105C3721C9
:10524000515C928E00918B495218431C28358FA1D6
:10525000924C2846A047FF200E900390002702970B
:10526000864801908648009005200C9001268C4CC1
:10527000314632462B46A0473B207A49085C8000E5
:1052800088490A1888A12846844B98477C48009092
:105290007A48019002973C460D970E980390822021
:1052A000314632462B467E4EB04738206D490A5C67
:1052B00080492846794B98470E9F039702947E4871
:1052C00001907E4800900A2016210B910C9E3246D8
:1052D0002B46734CA04779480090774801900D9871
:1052E00002900397562076A30B9C214632466C4FC2
:1052F000B84739205B490A5C28466E49674B984796
:105300006E4800906C4801900D9802900E980390A2
:105310007420214632462B46B847BEE26421284617
:1053200058F74AFE0F4619200101284658F744FE57
:10533000002F01D003212940484248410C21099106
:105340004843604908180C990818401E00780B90D3
:1053500008460E9C21462A46FFF742FB05460026DA
:10536000E7B20B98874240D80E9414A856493A46A3
:1053700003F0B2FF0C96F1B2099841430C462A346F
:10538000EAB21C205043064612360A9A974214D1BC
:1053900000270097024623320B4637330B302B3160
:1053A000FDF7BAFB3848009001970D9802900397DB
:1053B000F0B2E1B214AB3A4609E000223248009064
:1053C000019202920D980390F0B2E1B214ABFDF796
:1053D00017F80E9C0C9E6D1CE8B2062800D9761CAE
:1053E000062800D90025641CBAE715A8027943797C
:1053F0000FAC36A1204603F06FFF0020204900913A
:105400001E49019102900D98039096206E21012271
:105410002346FCF7F5FF40E200240D9E072C0ED238
:1054200001200021009101900C2060432830C1B27E
:105430000A20CE220B46FDF7DFFA641CEEE70024BB
:10544000082C49D201200021009101901C206043CA
:105450000A30C0B2282170230246FDF7CDFA641C41
:10546000EEE7C0465848FD07DC47FD0760D9FC075A
:10547000D81EFD076C070000C7D7FC0724CDFC072A
:1054800094ABFC0760ABFC0778B7FC0725642D25BF
:105490003032642D2530326400000000D992FC07C0
:1054A0000124FC0727D7FC07E6989FE69C9F2573FD
:1054B00000000000ABD7FC0716D5FC07F0BBFC07CB
:1054C0003A0000007CABFC07A8D7FC07253032640B
:1054D0003A253032640000006421304658F76CFDF4
:1054E0000C4619200101304658F766FD002C01D00A
:1054F00003213140484248410C2109914843F74972
:1055000009180C984118491E09780B912946324612
:10551000FFF766FA06460027ECB20B98844240D8A3
:105520000D9514A8EE49224603F0D6FE0C97F9B269
:10553000099841430D462A35F2B21C2050430746D4
:1055400012370A9A944214D100240094024625325C
:105550000B4633330B302931FDF7DEFAFA48009061
:1055600001940E9802900394F8B2E9B214AB22466B
:1055700009E00022F4480090019202920E980390F4
:10558000F8B2E9B214ABFCF73BFF0D9D0C9F761C03
:10559000F0B2062800D97F1C062800D900266D1C11
:1055A000BAE7089C079D0FA9284603F015FB002CBD
:1055B00000D1D9E0FF200590009091204200AA2060
:1055C0000C218423FDF7A8FA3A2000242146224624
:1055D000FDF71EF95920C54328461E3001210E91C2
:1055E0000D9504940E990D2900D1B4E00C90FCF7B0
:1055F000CFFDD84AD84BFCF73FFC2246D74BFCF7EF
:10560000A3FC05460E4604F043FC0E9F044606919B
:105610000B9528460A96314604F086FC08900791BF
:1056200014A80990C9493A4603F056FE2046CD4ECB
:10563000049C06992246CA4D2B46FCF71DFC2246C7
:105640003346FCF767FBFCF7C5FD0646089807994B
:1056500022462B46FCF710FC2246C34BFCF75AFBB4
:10566000FCF7B8FDB84900910194029405990391A3
:10567000092FB74901D8B649091D89198AB2801F77
:10568000C1B210462246099BFCF7BAFE0B9D284684
:105690000A9F394604F0FCFB2246B44BFCF7ECFBB6
:1056A0002246B04BFCF736FBFCF794FD0646284635
:1056B000394604F039FC2246AC4BFCF7DDFB2246B0
:1056C000A94BFCF727FBFCF785FD0146022330467A
:1056D0002246FDF7F5F90C981E300E99491C0E91E3
:1056E0000D9D7FE7E0B2052158F766FC002930D018
:1056F0002846FCF74DFD974A974BFCF7BDFB00276A
:105700003A46964BFCF720FC06460D950D4604F0F4
:10571000BFFB3A46964BFCF7AFFB3A46914BFCF782
:10572000F9FAFCF757FD0E90304629460D9D04F01E
:10573000FBFB3A468E4BFCF79FFB3A468A4BFCF745
:10574000E9FAFCF747FD014601230E983A46FDF7BA
:10575000B7F9AD1D641C3C2CC4D1E62048210022C1
:105760000323FDF7ADF904E03020FF210122FDF70E
:105770004FF80FAC20790C2158F71EFC1E2048432F
:10578000FCF706FD05460E4667793846FCF714FD22
:105790000024784B2246FCF76FFB2A463346FCF781
:1057A000B9FA754B2246FCF7B5FA6A4A6A4BFCF720
:1057B00063FB6A4B2246FCF7C7FB06460D460620F4
:1057C00078435A38FCF7E4FC624A634BFCF754FB1D
:1057D0002246624BFCF7B8FB07460E91304629463D
:1057E00004F056FB654B2246FCF746FB5D4B224618
:1057F000FCF790FAFCF7EEFC0D903046294604F0D9
:1058000093FB22465D4BFCF737FB574B2246FCF7D8
:1058100081FAFCF7DFFC0A9038460E9E314604F010
:1058200037FB054609913846314604F07DFB0C9064
:105830000B9103200E9000940190E62748263846ED
:1058400031460D9A0A9BFDF7D7F84D4B284609992A
:105850002246FCF711FB2246424BFCF75BFAFCF7B1
:10586000B9FC05460C980B992246454BFCF704FB06
:1058700022463D4BFCF74EFAFCF7ACFC03460220F7
:1058800000940190384631462A46FDF7B5F838466F
:10589000314622460E9BFDF713F900240094BC20EC
:1058A0000821BE250C232A46FDF736F90094032172
:1058B000D32211232846FDF72FF9214E727D214D69
:1058C00028352249284603F007FD3746727D1046E9
:1058D0000A385A2806D22BA107E0C0467CABFC0749
:1058E000A8D7FC07092A03D827A1284603F0F4FC0F
:1058F0000394FF260296019413480090BD200321D3
:1059000022462B46FCF77CFD2520385C012809D176
:105910000D4800A951C10394CA205A211CA3224654
:10592000FCF76EFD39200549085C002801D12620CE
:105930003C5427203C5417B0F0BDC0465848FD07E2
:10594000DC47FD0760D9FC0778B7FC07A8D7FC0740
:10595000F9FF0000182D4454FB21094000806640E7
:105960000080454000C06C400000524000004940AB
:1059700000804A400000E03F008056C000003D40EB
:105980000000444020256400202025640000000021
:105990004200000010B50F480F49FDF789FC48216F
:1059A0000E4C60522820215C3C2222540C48026894
:1059B000511801600BA0FEF715F8FFF771FB2720C7
:1059C000215C002900D010BD01212154FFF74AF8C5
:1059D00010BDC046701700009559FC07DC47FD0755
:1059E0005848FD0763757272656E745F756E6978ED
:1059F0005F74696D653A25640A00000070B50C7823
:105A0000A51E052D38D81C0A7D442D796D00AF44A4
:105A10000222333642507A2060433C4A1518887877
:105A200078216854C0070ED0284671300C2161439C
:105A3000E74A561831464131062258F737FB4020D5
:105A4000305C772168540C206043E14908184721F5
:105A5000002242543EE07A2060432C490818782105
:105A6000002242540C206043D9490818472142546F
:105A70002046FDF7D7FB2DE003F052FA2AE07A2505
:105A80006543224C60193A30891C172258F70EFBE7
:105A9000605D04211CE07A2565431C4E701961305D
:105AA000891C1024224658F701FB705D2043705575
:105AB00010E08B1C488A00280ED07A256543134CD1
:105AC00060191E301C22194658F7F0FA605D022159
:105AD00001436155002070BD7A2666430B4CA51921
:105AE000A81C1C22194658F7E1FAA05D01210143C8
:105AF000A15507A0FDF776FF112608A4012EE9D0D5
:105B0000A95D2046FDF76EFF761EF7E7461CFD07F0
:105B1000200D0A204C544B3A203078002530327842
:105B200000000000F0B585B00878072840D81C0AAE
:105B3000800001A210588746595BFC07B15BFC0747
:105B4000B15BFC07B15BFC07BF5BFC07655CFC0756
:105B5000655CFC07DB5BFC077A206043434900255A
:105B60000D540C206043BE490818472101274754B3
:105B7000A0003F490E18746F7436002C13D10A2010
:105B80000343F5208343404804221E24194623463C
:105B900056F70EF8044607703060801C3B49072218
:105BA00058F784FA6770204656F71BF8356059E0BD
:105BB000A948C8210180A94808210180FEE748784A
:105BC00003284FD8784400794000874440010146BB
:105BD0002848019001A9042241E07A26664323481F
:105BE00085194F782F772846143008210A46FDF78B
:105BF0001FFCA81C0090102239461746FDF718FC20
:105C00003CF7B9FE194B995D01220A439A55688207
:105C1000204601F057F8297F0177698A4182E98A95
:105C2000AA8A6B8B2D8B058343838282C182801C61
:105C300000993A4658F73AFA204601F043F855F7EA
:105C4000D0FFA0000A490818002181670AE00AA0D5
:105C500001A90A46E8C8E8C200E0891C10222046D3
:105C6000FDF7FCFA002005B0F0BDC046461CFD075C
:105C7000DC47FD0740E201000001020304050607BE
:105C800008090A0B0C0D0E0F140E0000E0A8FC070B
:105C900010B50C78092C0BD04C78002C06D0FB48A2
:105CA000C8210180FA4808210180FEE703F038F995
:105CB000002010BDFEB51E4610460C4656F72DF9C5
:105CC000022862D10294340A0C20604340490F1824
:105CD0003E203C543D463E35FF2C5DD03F20012107
:105CE0000191395404200090032156F7E4F8029AF8
:105CF0001088B88738463C30517A017141371146D7
:105D00000A310622384658F7D1F97A2060433149E2
:105D100008187821475C0A200643F52086432E4860
:105D20002C233146009A55F743FF28214754019F01
:105D3000014628314F7055F754FF2878FF282BD0A3
:105D4000264EB4772020305CFDF7DCFA02994888B3
:105D5000082809D3242807D888880A2804D14B208A
:105D60008000C988814204D0C8201D49FDF7A0FAEF
:105D7000F0771CA0FDF736FE2520375437771C48F6
:105D800004210A2256F766F908E00F48C82101806D
:105D90000E4808210180FEE703F014F82878FF2858
:105DA0000ED0144D08350026F0B2002802D003288A
:105DB00003D107E02968204688470C35761CF3E7B5
:105DC00003F000F80020FEBD003100500233005007
:105DD0005848FD07461CFD07020E0000DC47FD0782
:105DE0006578FC07636F6E6E656374696F6E0A0099
:105DF0001504000070A7FC0710B51C46104656F7A6
:105E00008CF8032820D1200A0C214143FB4840187C
:105E1000FF21C187F84CE07F002803D0FDF772FA1C
:105E20000020E07701F086FC02F0CCFF2521002065
:105E3000605420773821625C012A03D160540948FC
:105E40003CF7D0FC002010BDA448C8210180A44824
:105E500008210180FEE7C0460031005002330050A7
:105E60005848FD0711111111180A7A2242430348BC
:105E7000801809787822815400207047461CFD075D
:105E800000207047F0B589B01D46144608780228F6
:105E90001FD001282DD0002839D13E203F490E5C6B
:105EA0003E31491C01AF3846324658F7FFF83346B9
:105EB0000A3318482946224655F77AFE044646809A
:105EC00000202070201D3946324658F7EFF8204652
:105ED0001BE010480A232946224655F769FE7D211A
:105EE00001810021C180102181800821418002218F
:105EF0000AE0602029490E5A06480A23294622460C
:105F000055F756FE46800121017055F76AFE0020C4
:105F100009B0F0BD0B0E00000020704710B5194607
:105F2000E1200001062355F743FE002484804480CD
:105F30000121017055F755FE204610BD0020704725
